{
  "_format": "hh-sol-artifact-1",
  "contractName": "CompoundSupply",
  "sourceName": "contracts/CompoundSupply.sol",
  "abi": [
    {
      "anonymous": false,
      "inputs": [
        {
          "indexed": false,
          "internalType": "string",
          "name": "",
          "type": "string"
        },
        {
          "indexed": false,
          "internalType": "uint256",
          "name": "",
          "type": "uint256"
        }
      ],
      "name": "MyLog",
      "type": "event"
    },
    {
      "inputs": [
        {
          "internalType": "uint256",
          "name": "amount",
          "type": "uint256"
        },
        {
          "internalType": "bool",
          "name": "redeemType",
          "type": "bool"
        },
        {
          "internalType": "address",
          "name": "_cErc20Contract",
          "type": "address"
        }
      ],
      "name": "redeemCErc20Tokens",
      "outputs": [
        {
          "internalType": "bool",
          "name": "",
          "type": "bool"
        }
      ],
      "stateMutability": "nonpayable",
      "type": "function"
    },
    {
      "inputs": [
        {
          "internalType": "uint256",
          "name": "amount",
          "type": "uint256"
        },
        {
          "internalType": "bool",
          "name": "redeemType",
          "type": "bool"
        },
        {
          "internalType": "address",
          "name": "_cEtherContract",
          "type": "address"
        }
      ],
      "name": "redeemCEth",
      "outputs": [
        {
          "internalType": "bool",
          "name": "",
          "type": "bool"
        }
      ],
      "stateMutability": "nonpayable",
      "type": "function"
    },
    {
      "inputs": [
        {
          "internalType": "address",
          "name": "_erc20Contract",
          "type": "address"
        },
        {
          "internalType": "address",
          "name": "_cErc20Contract",
          "type": "address"
        },
        {
          "internalType": "uint256",
          "name": "_numTokensToSupply",
          "type": "uint256"
        }
      ],
      "name": "supplyErc20ToCompound",
      "outputs": [
        {
          "internalType": "uint256",
          "name": "",
          "type": "uint256"
        }
      ],
      "stateMutability": "nonpayable",
      "type": "function"
    },
    {
      "inputs": [
        {
          "internalType": "address payable",
          "name": "_cEtherContract",
          "type": "address"
        }
      ],
      "name": "supplyEthToCompound",
      "outputs": [
        {
          "internalType": "bool",
          "name": "",
          "type": "bool"
        }
      ],
      "stateMutability": "payable",
      "type": "function"
    },
    {
      "stateMutability": "payable",
      "type": "receive"
    }
  ],
  "bytecode": "0x608060405234801561001057600080fd5b506107c8806100206000396000f3fe6080604052600436106100435760003560e01c80633b7ba25f1461004f578063a82ffd88146100a4578063c6fb5014146100de578063d0ace48e146100de5761004a565b3661004a57005b600080fd5b34801561005b57600080fd5b506100926004803603606081101561007257600080fd5b506001600160a01b0381358116916020810135909116906040013561011f565b60408051918252519081900360200190f35b6100ca600480360360208110156100ba57600080fd5b50356001600160a01b03166103f1565b604080519115158252519081900360200190f35b3480156100ea57600080fd5b506100ca6004803603606081101561010157600080fd5b508035906020810135151590604001356001600160a01b03166105ef565b60008084905060008490506000816001600160a01b031663bd6d894d6040518163ffffffff1660e01b8152600401602060405180830381600087803b15801561016757600080fd5b505af115801561017b573d6000803e3d6000fd5b505050506040513d602081101561019157600080fd5b50516040805160208101839052818152601b818301527f45786368616e6765205261746520287363616c6564207570293a200000000000606082015290519192507f8d1cced004452bd270777a8c670f9f7e7c4fdde56f2db331fe289d39dc2624ad919081900360800190a16000826001600160a01b031663ae9d70b06040518163ffffffff1660e01b8152600401602060405180830381600087803b15801561023a57600080fd5b505af115801561024e573d6000803e3d6000fd5b505050506040513d602081101561026457600080fd5b505160408051602081018390528181526018818301527f537570706c7920526174653a20287363616c6564207570290000000000000000606082015290519192507f8d1cced004452bd270777a8c670f9f7e7c4fdde56f2db331fe289d39dc2624ad919081900360800190a1836001600160a01b031663095ea7b388886040518363ffffffff1660e01b815260040180836001600160a01b0316815260200182815260200192505050602060405180830381600087803b15801561032757600080fd5b505af115801561033b573d6000803e3d6000fd5b505050506040513d602081101561035157600080fd5b5050604080517fa0712d680000000000000000000000000000000000000000000000000000000081526004810188905290516000916001600160a01b0386169163a0712d689160248082019260209290919082900301818787803b1580156103b857600080fd5b505af11580156103cc573d6000803e3d6000fd5b505050506040513d60208110156103e257600080fd5b50519998505050505050505050565b6000808290506000816001600160a01b031663bd6d894d6040518163ffffffff1660e01b8152600401602060405180830381600087803b15801561043457600080fd5b505af1158015610448573d6000803e3d6000fd5b505050506040513d602081101561045e57600080fd5b5051604080516020810183905281815260239181018290529192507f8d1cced004452bd270777a8c670f9f7e7c4fdde56f2db331fe289d39dc2624ad9183918190606082019061077082396040019250505060405180910390a16000826001600160a01b031663ae9d70b06040518163ffffffff1660e01b8152600401602060405180830381600087803b1580156104f557600080fd5b505af1158015610509573d6000803e3d6000fd5b505050506040513d602081101561051f57600080fd5b5051604080516020818101849052828252818301527f537570706c7920526174653a20287363616c6564207570206279203165313829606082015290519192507f8d1cced004452bd270777a8c670f9f7e7c4fdde56f2db331fe289d39dc2624ad919081900360800190a1826001600160a01b0316631249c58b346203d090906040518363ffffffff1660e01b81526004016000604051808303818589803b1580156105ca57600080fd5b5088f11580156105de573d6000803e3d6000fd5b5060019a9950505050505050505050565b600081816001851515141561067757816001600160a01b031663db006a75876040518263ffffffff1660e01b815260040180828152602001915050602060405180830381600087803b15801561064457600080fd5b505af1158015610658573d6000803e3d6000fd5b505050506040513d602081101561066e57600080fd5b505190506106ec565b816001600160a01b031663852a12e3876040518263ffffffff1660e01b815260040180828152602001915050602060405180830381600087803b1580156106bd57600080fd5b505af11580156106d1573d6000803e3d6000fd5b505050506040513d60208110156106e757600080fd5b505190505b7f8d1cced004452bd270777a8c670f9f7e7c4fdde56f2db331fe289d39dc2624ad8160405180806020018381526020018281038252602481526020018061074c602491396040019250505060405180910390a15060019594505050505056fe49662074686973206973206e6f7420302c2074686572652077617320616e206572726f7245786368616e6765205261746520287363616c65642075702062792031653138293a20a2646970667358221220c8848701dfc0a5b2e78c68f5e4d0f0ef165e91818527aeacae6f72eeca9e78ac64736f6c63430007010033",
  "linkReferences": {},
  "deployedLinkReferences": {}
}