{
  "_format": "hh-sol-artifact-1",
  "contractName": "CompoundBorrow",
  "sourceName": "contracts/CompoundBorrow.sol",
  "abi": [
    {
      "anonymous": false,
      "inputs": [
        {
          "indexed": false,
          "internalType": "string",
          "name": "",
          "type": "string"
        },
        {
          "indexed": false,
          "internalType": "uint256",
          "name": "",
          "type": "uint256"
        }
      ],
      "name": "MyLog",
      "type": "event"
    },
    {
      "inputs": [
        {
          "internalType": "address payable",
          "name": "_cEtherAddress",
          "type": "address"
        },
        {
          "internalType": "address",
          "name": "_comptrollerAddress",
          "type": "address"
        },
        {
          "internalType": "address",
          "name": "_priceFeedAddress",
          "type": "address"
        },
        {
          "internalType": "address",
          "name": "_cTokenAddress",
          "type": "address"
        },
        {
          "internalType": "uint256",
          "name": "_underlyingDecimals",
          "type": "uint256"
        },
        {
          "internalType": "uint256",
          "name": "numUnderlyingToBorrow",
          "type": "uint256"
        }
      ],
      "name": "borrowErc20Example",
      "outputs": [
        {
          "internalType": "uint256",
          "name": "",
          "type": "uint256"
        }
      ],
      "stateMutability": "payable",
      "type": "function"
    },
    {
      "inputs": [
        {
          "internalType": "address payable",
          "name": "_cEtherAddress",
          "type": "address"
        },
        {
          "internalType": "address",
          "name": "_comptrollerAddress",
          "type": "address"
        },
        {
          "internalType": "address",
          "name": "_cTokenAddress",
          "type": "address"
        },
        {
          "internalType": "address",
          "name": "_underlyingAddress",
          "type": "address"
        },
        {
          "internalType": "uint256",
          "name": "_underlyingToSupplyAsCollateral",
          "type": "uint256"
        },
        {
          "internalType": "uint256",
          "name": "numWeiToBorrow",
          "type": "uint256"
        }
      ],
      "name": "borrowEthExample",
      "outputs": [
        {
          "internalType": "uint256",
          "name": "",
          "type": "uint256"
        }
      ],
      "stateMutability": "nonpayable",
      "type": "function"
    },
    {
      "inputs": [
        {
          "internalType": "address",
          "name": "_erc20Address",
          "type": "address"
        },
        {
          "internalType": "address",
          "name": "_cErc20Address",
          "type": "address"
        },
        {
          "internalType": "uint256",
          "name": "amount",
          "type": "uint256"
        }
      ],
      "name": "myErc20RepayBorrow",
      "outputs": [
        {
          "internalType": "bool",
          "name": "",
          "type": "bool"
        }
      ],
      "stateMutability": "nonpayable",
      "type": "function"
    },
    {
      "inputs": [
        {
          "internalType": "address",
          "name": "_cEtherAddress",
          "type": "address"
        },
        {
          "internalType": "uint256",
          "name": "amount",
          "type": "uint256"
        },
        {
          "internalType": "uint256",
          "name": "gas",
          "type": "uint256"
        }
      ],
      "name": "myEthRepayBorrow",
      "outputs": [
        {
          "internalType": "bool",
          "name": "",
          "type": "bool"
        }
      ],
      "stateMutability": "nonpayable",
      "type": "function"
    },
    {
      "stateMutability": "payable",
      "type": "receive"
    }
  ],
  "bytecode": "0x608060405234801561001057600080fd5b50611117806100206000396000f3fe6080604052600436106100435760003560e01c806305cc05151461004f5780631231ece9146100ba578063ae31b52e14610111578063ae9321cb1461015d5761004a565b3661004a57005b600080fd5b34801561005b57600080fd5b506100a8600480360360c081101561007257600080fd5b506001600160a01b0381358116916020810135821691604082013581169160608101359091169060808101359060a0013561019c565b60408051918252519081900360200190f35b3480156100c657600080fd5b506100fd600480360360608110156100dd57600080fd5b506001600160a01b03813581169160208101359091169060400135610838565b604080519115158252519081900360200190f35b6100a8600480360360c081101561012757600080fd5b506001600160a01b0381358116916020810135821691604082013581169160608101359091169060808101359060a001356109b0565b34801561016957600080fd5b506100fd6004803603606081101561018057600080fd5b506001600160a01b038135169060208101359060400135611001565b6040805163095ea7b360e01b81526001600160a01b03808716600483015260248201859052915160009289928992899289929083169163095ea7b39160448082019260209290919082900301818b87803b1580156101f957600080fd5b505af115801561020d573d6000803e3d6000fd5b505050506040513d602081101561022357600080fd5b5050604080517fa0712d680000000000000000000000000000000000000000000000000000000081526004810189905290516000916001600160a01b0385169163a0712d689160248082019260209290919082900301818787803b15801561028a57600080fd5b505af115801561029e573d6000803e3d6000fd5b505050506040513d60208110156102b457600080fd5b50519050801561030b576040805162461bcd60e51b815260206004820152601160248201527f4345726332302e6d696e74204572726f72000000000000000000000000000000604482015290519081900360640190fd5b604080516001808252818301909252606091602080830190803683370190505090508a8160008151811061033b57fe5b6001600160a01b03928316602091820292909201810191909152604051631853304760e31b8152600481018281528451602483015284516060948a169363c2998238938793928392604490920191858101910280838360005b838110156103ac578181015183820152602001610394565b5050505090500192505050600060405180830381600087803b1580156103d157600080fd5b505af11580156103e5573d6000803e3d6000fd5b505050506040513d6000823e601f3d908101601f19168201604052602081101561040e57600080fd5b810190808051604051939291908464010000000082111561042e57600080fd5b90830190602082018581111561044357600080fd5b825186602082028301116401000000008211171561046057600080fd5b82525081516020918201928201910280838360005b8381101561048d578181015183820152602001610475565b505050509050016040525050509050806000815181106104a957fe5b6020026020010151600014610505576040805162461bcd60e51b815260206004820181905260248201527f436f6d7074726f6c6c65722e656e7465724d61726b657473206661696c65642e604482015290519081900360640190fd5b6000806000886001600160a01b0316635ec88c79306040518263ffffffff1660e01b815260040180826001600160a01b0316815260200191505060606040518083038186803b15801561055757600080fd5b505afa15801561056b573d6000803e3d6000fd5b505050506040513d606081101561058157600080fd5b5080516020820151604090920151909450909250905082156105d45760405162461bcd60e51b81526004018080602001828103825260278152602001806110bb6027913960400191505060405180910390fd5b8015610627576040805162461bcd60e51b815260206004820152601260248201527f6163636f756e7420756e64657277617465720000000000000000000000000000604482015290519081900360640190fd5b6000821161067c576040805162461bcd60e51b815260206004820152601d60248201527f6163636f756e74206861732065786365737320636f6c6c61746572616c000000604482015290519081900360640190fd5b7f8d1cced004452bd270777a8c670f9f7e7c4fdde56f2db331fe289d39dc2624ad8260405180806020018381526020018281038252602581526020018061106a602591396040019250505060405180910390a1896001600160a01b031663c5ebeaec8d6040518263ffffffff1660e01b815260040180828152602001915050602060405180830381600087803b15801561071557600080fd5b505af1158015610729573d6000803e3d6000fd5b505050506040513d602081101561073f57600080fd5b5050604080516305eff7ef60e21b815230600482015290516000916001600160a01b038d16916317bfdfbc9160248082019260209290919082900301818787803b15801561078c57600080fd5b505af11580156107a0573d6000803e3d6000fd5b505050506040513d60208110156107b657600080fd5b505160408051602081018390528181526019818301527f43757272656e742045544820626f72726f7720616d6f756e7400000000000000606082015290519192507f8d1cced004452bd270777a8c670f9f7e7c4fdde56f2db331fe289d39dc2624ad919081900360800190a19a50505050505050505050509695505050505050565b6040805163095ea7b360e01b81526001600160a01b038085166004830152602482018490529151600092869286929184169163095ea7b39160448082019260209290919082900301818987803b15801561089157600080fd5b505af11580156108a5573d6000803e3d6000fd5b505050506040513d60208110156108bb57600080fd5b5050604080517f0e7527020000000000000000000000000000000000000000000000000000000081526004810186905290516000916001600160a01b03841691630e7527029160248082019260209290919082900301818787803b15801561092257600080fd5b505af1158015610936573d6000803e3d6000fd5b505050506040513d602081101561094c57600080fd5b5051905080156109a3576040805162461bcd60e51b815260206004820152601860248201527f4345726332302e7265706179426f72726f77204572726f720000000000000000604482015290519081900360640190fd5b5060019695505050505050565b600080879050600087905060008790506000879050836001600160a01b0316631249c58b346203d090906040518363ffffffff1660e01b81526004016000604051808303818589803b158015610a0557600080fd5b5088f1158015610a19573d6000803e3d6000fd5b5050505050506060600167ffffffffffffffff81118015610a3957600080fd5b50604051908082528060200260200182016040528015610a63578160200160208202803683370190505b5090508b81600081518110610a7457fe5b6001600160a01b03928316602091820292909201810191909152604051631853304760e31b81526004810182815284516024830152845160609489169363c2998238938793928392604490920191858101910280838360005b83811015610ae5578181015183820152602001610acd565b5050505090500192505050600060405180830381600087803b158015610b0a57600080fd5b505af1158015610b1e573d6000803e3d6000fd5b505050506040513d6000823e601f3d908101601f191682016040526020811015610b4757600080fd5b8101908080516040519392919084640100000000821115610b6757600080fd5b908301906020820185811115610b7c57600080fd5b8251866020820283011164010000000082111715610b9957600080fd5b82525081516020918201928201910280838360005b83811015610bc6578181015183820152602001610bae565b50505050905001604052505050905080600081518110610be257fe5b6020026020010151600014610c3e576040805162461bcd60e51b815260206004820181905260248201527f436f6d7074726f6c6c65722e656e7465724d61726b657473206661696c65642e604482015290519081900360640190fd5b6000806000876001600160a01b0316635ec88c79306040518263ffffffff1660e01b815260040180826001600160a01b0316815260200191505060606040518083038186803b158015610c9057600080fd5b505afa158015610ca4573d6000803e3d6000fd5b505050506040513d6060811015610cba57600080fd5b508051602082015160409092015190945090925090508215610d0d5760405162461bcd60e51b81526004018080602001828103825260278152602001806110bb6027913960400191505060405180910390fd5b8015610d60576040805162461bcd60e51b815260206004820152601260248201527f6163636f756e7420756e64657277617465720000000000000000000000000000604482015290519081900360640190fd5b60008211610db5576040805162461bcd60e51b815260206004820152601d60248201527f6163636f756e74206861732065786365737320636f6c6c61746572616c000000604482015290519081900360640190fd5b6000876001600160a01b031663fc57d4df8f6040518263ffffffff1660e01b815260040180826001600160a01b0316815260200191505060206040518083038186803b158015610e0457600080fd5b505afa158015610e18573d6000803e3d6000fd5b505050506040513d6020811015610e2e57600080fd5b505190506000818481610e3d57fe5b0490507f8d1cced004452bd270777a8c670f9f7e7c4fdde56f2db331fe289d39dc2624ad8160405180806020018381526020018281038252602c81526020018061108f602c91396040019250505060405180910390a1876001600160a01b031663c5ebeaec8f600a0a8f026040518263ffffffff1660e01b815260040180828152602001915050602060405180830381600087803b158015610ede57600080fd5b505af1158015610ef2573d6000803e3d6000fd5b505050506040513d6020811015610f0857600080fd5b5050604080516305eff7ef60e21b815230600482015290516000916001600160a01b038b16916317bfdfbc9160248082019260209290919082900301818787803b158015610f5557600080fd5b505af1158015610f69573d6000803e3d6000fd5b505050506040513d6020811015610f7f57600080fd5b5051604080516020818101849052828252818301527f43757272656e7420756e6465726c79696e6720626f72726f7720616d6f756e74606082015290519192507f8d1cced004452bd270777a8c670f9f7e7c4fdde56f2db331fe289d39dc2624ad919081900360800190a19b5050505050505050505050509695505050505050565b600080849050806001600160a01b0316634e4d9fea8585906040518363ffffffff1660e01b81526004016000604051808303818589803b15801561104457600080fd5b5088f1158015611058573d6000803e3d6000fd5b5060019a995050505050505050505056fe4d6178696d756d2045544820426f72726f772028626f72726f7720666172206c65737321294d6178696d756d20756e6465726c79696e6720426f72726f772028626f72726f7720666172206c6573732129436f6d7074726f6c6c65722e6765744163636f756e744c6971756964697479206661696c65642ea264697066735822122051411574cdd163349f407b7ffb01bde5e70c2e7549084acaeb1c3657732acf8664736f6c63430007010033",
  "linkReferences": {},
  "deployedLinkReferences": {}
}